{
  "address": "0x9da302ddc6b78B7dE7B08Fb22bfcec48A662419c",
  "abi": [
    {
      "inputs": [
        {
          "internalType": "uint256",
          "name": "subscriptionId",
          "type": "uint256"
        },
        {
          "internalType": "address",
          "name": "vrfCoordinator",
          "type": "address"
        }
      ],
      "stateMutability": "nonpayable",
      "type": "constructor"
    },
    {
      "inputs": [
        {
          "internalType": "address",
          "name": "have",
          "type": "address"
        },
        {
          "internalType": "address",
          "name": "want",
          "type": "address"
        }
      ],
      "name": "OnlyCoordinatorCanFulfill",
      "type": "error"
    },
    {
      "inputs": [
        {
          "internalType": "address",
          "name": "have",
          "type": "address"
        },
        {
          "internalType": "address",
          "name": "owner",
          "type": "address"
        },
        {
          "internalType": "address",
          "name": "coordinator",
          "type": "address"
        }
      ],
      "name": "OnlyOwnerOrCoordinator",
      "type": "error"
    },
    {
      "inputs": [],
      "name": "ZeroAddress",
      "type": "error"
    },
    {
      "anonymous": false,
      "inputs": [
        {
          "indexed": false,
          "internalType": "address",
          "name": "vrfCoordinator",
          "type": "address"
        }
      ],
      "name": "CoordinatorSet",
      "type": "event"
    },
    {
      "anonymous": false,
      "inputs": [
        {
          "indexed": true,
          "internalType": "uint256",
          "name": "requestId",
          "type": "uint256"
        },
        {
          "indexed": true,
          "internalType": "uint256",
          "name": "result",
          "type": "uint256"
        }
      ],
      "name": "DiceLanded",
      "type": "event"
    },
    {
      "anonymous": false,
      "inputs": [
        {
          "indexed": true,
          "internalType": "uint256",
          "name": "requestId",
          "type": "uint256"
        }
      ],
      "name": "DiceRolled",
      "type": "event"
    },
    {
      "anonymous": false,
      "inputs": [
        {
          "indexed": true,
          "internalType": "address",
          "name": "from",
          "type": "address"
        },
        {
          "indexed": true,
          "internalType": "address",
          "name": "to",
          "type": "address"
        }
      ],
      "name": "OwnershipTransferRequested",
      "type": "event"
    },
    {
      "anonymous": false,
      "inputs": [
        {
          "indexed": true,
          "internalType": "address",
          "name": "from",
          "type": "address"
        },
        {
          "indexed": true,
          "internalType": "address",
          "name": "to",
          "type": "address"
        }
      ],
      "name": "OwnershipTransferred",
      "type": "event"
    },
    {
      "stateMutability": "nonpayable",
      "type": "fallback"
    },
    {
      "inputs": [],
      "name": "acceptOwnership",
      "outputs": [],
      "stateMutability": "nonpayable",
      "type": "function"
    },
    {
      "inputs": [],
      "name": "getOwner",
      "outputs": [
        {
          "internalType": "address",
          "name": "",
          "type": "address"
        }
      ],
      "stateMutability": "view",
      "type": "function"
    },
    {
      "inputs": [],
      "name": "getRandomNumber",
      "outputs": [
        {
          "internalType": "uint256",
          "name": "",
          "type": "uint256"
        }
      ],
      "stateMutability": "view",
      "type": "function"
    },
    {
      "inputs": [],
      "name": "owner",
      "outputs": [
        {
          "internalType": "address",
          "name": "",
          "type": "address"
        }
      ],
      "stateMutability": "view",
      "type": "function"
    },
    {
      "inputs": [
        {
          "internalType": "uint256",
          "name": "requestId",
          "type": "uint256"
        },
        {
          "internalType": "uint256[]",
          "name": "randomWords",
          "type": "uint256[]"
        }
      ],
      "name": "rawFulfillRandomWords",
      "outputs": [],
      "stateMutability": "nonpayable",
      "type": "function"
    },
    {
      "inputs": [],
      "name": "rollDice",
      "outputs": [
        {
          "internalType": "uint256",
          "name": "requestId",
          "type": "uint256"
        }
      ],
      "stateMutability": "nonpayable",
      "type": "function"
    },
    {
      "inputs": [],
      "name": "s_vrfCoordinator",
      "outputs": [
        {
          "internalType": "contract IVRFCoordinatorV2Plus",
          "name": "",
          "type": "address"
        }
      ],
      "stateMutability": "view",
      "type": "function"
    },
    {
      "inputs": [
        {
          "internalType": "address",
          "name": "_vrfCoordinator",
          "type": "address"
        }
      ],
      "name": "setCoordinator",
      "outputs": [],
      "stateMutability": "nonpayable",
      "type": "function"
    },
    {
      "inputs": [
        {
          "internalType": "address",
          "name": "to",
          "type": "address"
        }
      ],
      "name": "transferOwnership",
      "outputs": [],
      "stateMutability": "nonpayable",
      "type": "function"
    },
    {
      "stateMutability": "payable",
      "type": "receive"
    }
  ],
  "transactionHash": "0x075fb9f50aa240acde536088f63bc8954935e799af0fbfb02ffbf8d807ab9dc9",
  "args": [
    "96873767676549406861184492808204672354276201385122910176881253907593336388483",
    "0x9DdfaCa8183c41ad55329BdeeD9F6A8d53168B1B"
  ],
  "numDeployments": 1,
  "solcInputHash": "ceceff7565a5f06a340e4bea23658054",
  "bytecode": "0x60c06040527f787d74caea10b2b357790d5b5247c2f63d1d91572a9846f780606e4d953677ae60001b600355619c40600460006101000a81548163ffffffff021916908363ffffffff16021790555060036004806101000a81548161ffff021916908361ffff1602179055506001600460066101000a81548163ffffffff021916908363ffffffff1602179055503480156200009a57600080fd5b50604051620018c6380380620018c68339818101604052810190620000c0919062000481565b80338060008073ffffffffffffffffffffffffffffffffffffffff168273ffffffffffffffffffffffffffffffffffffffff160362000136576040517f08c379a00000000000000000000000000000000000000000000000000000000081526004016200012d9062000529565b60405180910390fd5b816000806101000a81548173ffffffffffffffffffffffffffffffffffffffff021916908373ffffffffffffffffffffffffffffffffffffffff160217905550600073ffffffffffffffffffffffffffffffffffffffff168173ffffffffffffffffffffffffffffffffffffffff1614620001bd57620001bc81620002ad60201b60201c565b5b505050600073ffffffffffffffffffffffffffffffffffffffff168173ffffffffffffffffffffffffffffffffffffffff160362000227576040517fd92e233d00000000000000000000000000000000000000000000000000000000815260040160405180910390fd5b80600260006101000a81548173ffffffffffffffffffffffffffffffffffffffff021916908373ffffffffffffffffffffffffffffffffffffffff1602179055505081608081815250503373ffffffffffffffffffffffffffffffffffffffff1660a08173ffffffffffffffffffffffffffffffffffffffff16815250505050620005bd565b3373ffffffffffffffffffffffffffffffffffffffff168173ffffffffffffffffffffffffffffffffffffffff16036200031e576040517f08c379a000000000000000000000000000000000000000000000000000000000815260040162000315906200059b565b60405180910390fd5b80600160006101000a81548173ffffffffffffffffffffffffffffffffffffffff021916908373ffffffffffffffffffffffffffffffffffffffff1602179055508073ffffffffffffffffffffffffffffffffffffffff1660008054906101000a900473ffffffffffffffffffffffffffffffffffffffff1673ffffffffffffffffffffffffffffffffffffffff167fed8889f560326eb138920d842192f0eb3dd22b4f139c87a2c57538e05bae127860405160405180910390a350565b600080fd5b6000819050919050565b620003f681620003e1565b81146200040257600080fd5b50565b6000815190506200041681620003eb565b92915050565b600073ffffffffffffffffffffffffffffffffffffffff82169050919050565b600062000449826200041c565b9050919050565b6200045b816200043c565b81146200046757600080fd5b50565b6000815190506200047b8162000450565b92915050565b600080604083850312156200049b576200049a620003dc565b5b6000620004ab8582860162000405565b9250506020620004be858286016200046a565b9150509250929050565b600082825260208201905092915050565b7f43616e6e6f7420736574206f776e657220746f207a65726f0000000000000000600082015250565b600062000511601883620004c8565b91506200051e82620004d9565b602082019050919050565b60006020820190508181036000830152620005448162000502565b9050919050565b7f43616e6e6f74207472616e7366657220746f2073656c66000000000000000000600082015250565b600062000583601783620004c8565b915062000590826200054b565b602082019050919050565b60006020820190508181036000830152620005b68162000574565b9050919050565b60805160a0516112dc620005ea60003960008181610467015261063a0152600061051001526112dc6000f3fe60806040526004361061008a5760003560e01c80638da5cb5b116100595780638da5cb5b146101355780638ea98117146101605780639eccacf614610189578063dbdff2c1146101b4578063f2fde38b146101df57610091565b80631fe543e31461009f57806379ba5097146100c8578063837e7cc6146100df578063893d20e81461010a57610091565b3661009157005b34801561009d57600080fd5b005b3480156100ab57600080fd5b506100c660048036038101906100c19190610c13565b610208565b005b3480156100d457600080fd5b506100dd6102ce565b005b3480156100eb57600080fd5b506100f4610463565b6040516101019190610c82565b60405180910390f35b34801561011657600080fd5b5061011f610636565b60405161012c9190610cde565b60405180910390f35b34801561014157600080fd5b5061014a61065e565b6040516101579190610cde565b60405180910390f35b34801561016c57600080fd5b5061018760048036038101906101829190610d25565b610687565b005b34801561019557600080fd5b5061019e610868565b6040516101ab9190610db1565b60405180910390f35b3480156101c057600080fd5b506101c961088e565b6040516101d69190610c82565b60405180910390f35b3480156101eb57600080fd5b5061020660048036038101906102019190610d25565b610898565b005b600260009054906101000a900473ffffffffffffffffffffffffffffffffffffffff1673ffffffffffffffffffffffffffffffffffffffff163373ffffffffffffffffffffffffffffffffffffffff16146102be5733600260009054906101000a900473ffffffffffffffffffffffffffffffffffffffff166040517f1cf993f40000000000000000000000000000000000000000000000000000000081526004016102b5929190610dcc565b60405180910390fd5b6102c98383836108ac565b505050565b600160009054906101000a900473ffffffffffffffffffffffffffffffffffffffff1673ffffffffffffffffffffffffffffffffffffffff163373ffffffffffffffffffffffffffffffffffffffff161461035e576040517f08c379a000000000000000000000000000000000000000000000000000000000815260040161035590610e52565b60405180910390fd5b60008060009054906101000a900473ffffffffffffffffffffffffffffffffffffffff169050336000806101000a81548173ffffffffffffffffffffffffffffffffffffffff021916908373ffffffffffffffffffffffffffffffffffffffff1602179055506000600160006101000a81548173ffffffffffffffffffffffffffffffffffffffff021916908373ffffffffffffffffffffffffffffffffffffffff1602179055503373ffffffffffffffffffffffffffffffffffffffff168173ffffffffffffffffffffffffffffffffffffffff167f8be0079c531659141344cd1fd0a4f28419497f9722a3daafe3b4186f6b6457e060405160405180910390a350565b60007f000000000000000000000000000000000000000000000000000000000000000073ffffffffffffffffffffffffffffffffffffffff163373ffffffffffffffffffffffffffffffffffffffff16146104bd57600080fd5b600260009054906101000a900473ffffffffffffffffffffffffffffffffffffffff1673ffffffffffffffffffffffffffffffffffffffff16639b1c385e6040518060c0016040528060035481526020017f0000000000000000000000000000000000000000000000000000000000000000815260200160048054906101000a900461ffff1661ffff168152602001600460009054906101000a900463ffffffff1663ffffffff168152602001600460069054906101000a900463ffffffff1663ffffffff1681526020016105a260405180602001604052806000151581525061091a565b8152506040518263ffffffff1660e01b81526004016105c19190610fef565b6020604051808303816000875af11580156105e0573d6000803e3d6000fd5b505050506040513d601f19601f820116820180604052508101906106049190611026565b9050807f0c720560a539b13f97fb22b6c1ac4393045cedca3bb997fd2ea1f7a3dfb76a5860405160405180910390a290565b60007f0000000000000000000000000000000000000000000000000000000000000000905090565b60008060009054906101000a900473ffffffffffffffffffffffffffffffffffffffff16905090565b61068f61065e565b73ffffffffffffffffffffffffffffffffffffffff163373ffffffffffffffffffffffffffffffffffffffff16141580156107185750600260009054906101000a900473ffffffffffffffffffffffffffffffffffffffff1673ffffffffffffffffffffffffffffffffffffffff163373ffffffffffffffffffffffffffffffffffffffff1614155b15610787573361072661065e565b600260009054906101000a900473ffffffffffffffffffffffffffffffffffffffff166040517f061db9c100000000000000000000000000000000000000000000000000000000815260040161077e93929190611053565b60405180910390fd5b600073ffffffffffffffffffffffffffffffffffffffff168173ffffffffffffffffffffffffffffffffffffffff16036107ed576040517fd92e233d00000000000000000000000000000000000000000000000000000000815260040160405180910390fd5b80600260006101000a81548173ffffffffffffffffffffffffffffffffffffffff021916908373ffffffffffffffffffffffffffffffffffffffff1602179055507fd1a6a14209a385a964d036e404cb5cfb71f4000cdb03c9366292430787261be68160405161085d9190610cde565b60405180910390a150565b600260009054906101000a900473ffffffffffffffffffffffffffffffffffffffff1681565b6000600554905090565b6108a06109b2565b6108a981610a42565b50565b60016014838360008181106108c4576108c361108a565b5b905060200201356108d591906110e8565b6108df9190611148565b600581905550600554837f54d97c1f7e5abad75bd421455cd4dd296852a52e1ea721f2cdb66d06fa2082a960405160405180910390a3505050565b60607f92fd13387c7fe7befbc38d303d6468778fb9731bc4583f17d92989c6fcfdeaaa8260405160240161094e91906111b3565b604051602081830303815290604052907bffffffffffffffffffffffffffffffffffffffffffffffffffffffff19166020820180517bffffffffffffffffffffffffffffffffffffffffffffffffffffffff83818316178352505050509050919050565b60008054906101000a900473ffffffffffffffffffffffffffffffffffffffff1673ffffffffffffffffffffffffffffffffffffffff163373ffffffffffffffffffffffffffffffffffffffff1614610a40576040517f08c379a0000000000000000000000000000000000000000000000000000000008152600401610a379061121a565b60405180910390fd5b565b3373ffffffffffffffffffffffffffffffffffffffff168173ffffffffffffffffffffffffffffffffffffffff1603610ab0576040517f08c379a0000000000000000000000000000000000000000000000000000000008152600401610aa790611286565b60405180910390fd5b80600160006101000a81548173ffffffffffffffffffffffffffffffffffffffff021916908373ffffffffffffffffffffffffffffffffffffffff1602179055508073ffffffffffffffffffffffffffffffffffffffff1660008054906101000a900473ffffffffffffffffffffffffffffffffffffffff1673ffffffffffffffffffffffffffffffffffffffff167fed8889f560326eb138920d842192f0eb3dd22b4f139c87a2c57538e05bae127860405160405180910390a350565b600080fd5b600080fd5b6000819050919050565b610b8b81610b78565b8114610b9657600080fd5b50565b600081359050610ba881610b82565b92915050565b600080fd5b600080fd5b600080fd5b60008083601f840112610bd357610bd2610bae565b5b8235905067ffffffffffffffff811115610bf057610bef610bb3565b5b602083019150836020820283011115610c0c57610c0b610bb8565b5b9250929050565b600080600060408486031215610c2c57610c2b610b6e565b5b6000610c3a86828701610b99565b935050602084013567ffffffffffffffff811115610c5b57610c5a610b73565b5b610c6786828701610bbd565b92509250509250925092565b610c7c81610b78565b82525050565b6000602082019050610c976000830184610c73565b92915050565b600073ffffffffffffffffffffffffffffffffffffffff82169050919050565b6000610cc882610c9d565b9050919050565b610cd881610cbd565b82525050565b6000602082019050610cf36000830184610ccf565b92915050565b610d0281610cbd565b8114610d0d57600080fd5b50565b600081359050610d1f81610cf9565b92915050565b600060208284031215610d3b57610d3a610b6e565b5b6000610d4984828501610d10565b91505092915050565b6000819050919050565b6000610d77610d72610d6d84610c9d565b610d52565b610c9d565b9050919050565b6000610d8982610d5c565b9050919050565b6000610d9b82610d7e565b9050919050565b610dab81610d90565b82525050565b6000602082019050610dc66000830184610da2565b92915050565b6000604082019050610de16000830185610ccf565b610dee6020830184610ccf565b9392505050565b600082825260208201905092915050565b7f4d7573742062652070726f706f736564206f776e657200000000000000000000600082015250565b6000610e3c601683610df5565b9150610e4782610e06565b602082019050919050565b60006020820190508181036000830152610e6b81610e2f565b9050919050565b6000819050919050565b610e8581610e72565b82525050565b610e9481610b78565b82525050565b600061ffff82169050919050565b610eb181610e9a565b82525050565b600063ffffffff82169050919050565b610ed081610eb7565b82525050565b600081519050919050565b600082825260208201905092915050565b60005b83811015610f10578082015181840152602081019050610ef5565b60008484015250505050565b6000601f19601f8301169050919050565b6000610f3882610ed6565b610f428185610ee1565b9350610f52818560208601610ef2565b610f5b81610f1c565b840191505092915050565b600060c083016000830151610f7e6000860182610e7c565b506020830151610f916020860182610e8b565b506040830151610fa46040860182610ea8565b506060830151610fb76060860182610ec7565b506080830151610fca6080860182610ec7565b5060a083015184820360a0860152610fe28282610f2d565b9150508091505092915050565b600060208201905081810360008301526110098184610f66565b905092915050565b60008151905061102081610b82565b92915050565b60006020828403121561103c5761103b610b6e565b5b600061104a84828501611011565b91505092915050565b60006060820190506110686000830186610ccf565b6110756020830185610ccf565b6110826040830184610ccf565b949350505050565b7f4e487b7100000000000000000000000000000000000000000000000000000000600052603260045260246000fd5b7f4e487b7100000000000000000000000000000000000000000000000000000000600052601260045260246000fd5b60006110f382610b78565b91506110fe83610b78565b92508261110e5761110d6110b9565b5b828206905092915050565b7f4e487b7100000000000000000000000000000000000000000000000000000000600052601160045260246000fd5b600061115382610b78565b915061115e83610b78565b925082820190508082111561117657611175611119565b5b92915050565b60008115159050919050565b6111918161117c565b82525050565b6020820160008201516111ad6000850182611188565b50505050565b60006020820190506111c86000830184611197565b92915050565b7f4f6e6c792063616c6c61626c65206279206f776e657200000000000000000000600082015250565b6000611204601683610df5565b915061120f826111ce565b602082019050919050565b60006020820190508181036000830152611233816111f7565b9050919050565b7f43616e6e6f74207472616e7366657220746f2073656c66000000000000000000600082015250565b6000611270601783610df5565b915061127b8261123a565b602082019050919050565b6000602082019050818103600083015261129f81611263565b905091905056fea2646970667358221220740669c40c8962c83f0c8a7c3a08899d307d1c09bdd218697417ae65024ede0264736f6c63430008140033",
  "devdoc": {
    "kind": "dev",
    "methods": {
      "constructor": {
        "details": "Contract constructor ."
      },
      "getOwner()": {
        "details": "Returns owner.",
        "returns": {
          "_0": "i_owner address."
        }
      },
      "getRandomNumber()": {
        "details": "Returns Random Number.",
        "returns": {
          "_0": "randomNum Returns randomNum."
        }
      }
    },
    "version": 1
  },
  "userdoc": {
    "kind": "user",
    "methods": {
      "acceptOwnership()": {
        "notice": "Allows an ownership transfer to be completed by the recipient."
      },
      "owner()": {
        "notice": "Get the current owner"
      },
      "setCoordinator(address)": {
        "notice": "Sets the VRF Coordinator addressThis method should only be callable by the coordinator or contract owner"
      },
      "transferOwnership(address)": {
        "notice": "Allows an owner to begin transferring ownership to a new address."
      }
    },
    "version": 1
  },
  "storageLayout": {
    "storage": [
      {
        "astId": 29,
        "contract": "contracts/ChainlinkVRFTest.sol:ChainlinkVRFTest",
        "label": "s_owner",
        "offset": 0,
        "slot": "0",
        "type": "t_address"
      },
      {
        "astId": 31,
        "contract": "contracts/ChainlinkVRFTest.sol:ChainlinkVRFTest",
        "label": "s_pendingOwner",
        "offset": 0,
        "slot": "1",
        "type": "t_address"
      },
      {
        "astId": 231,
        "contract": "contracts/ChainlinkVRFTest.sol:ChainlinkVRFTest",
        "label": "s_vrfCoordinator",
        "offset": 0,
        "slot": "2",
        "type": "t_contract(IVRFCoordinatorV2Plus)380"
      },
      {
        "astId": 548,
        "contract": "contracts/ChainlinkVRFTest.sol:ChainlinkVRFTest",
        "label": "s_keyHash",
        "offset": 0,
        "slot": "3",
        "type": "t_bytes32"
      },
      {
        "astId": 551,
        "contract": "contracts/ChainlinkVRFTest.sol:ChainlinkVRFTest",
        "label": "callbackGasLimit",
        "offset": 0,
        "slot": "4",
        "type": "t_uint32"
      },
      {
        "astId": 554,
        "contract": "contracts/ChainlinkVRFTest.sol:ChainlinkVRFTest",
        "label": "requestConfirmations",
        "offset": 4,
        "slot": "4",
        "type": "t_uint16"
      },
      {
        "astId": 557,
        "contract": "contracts/ChainlinkVRFTest.sol:ChainlinkVRFTest",
        "label": "numWords",
        "offset": 6,
        "slot": "4",
        "type": "t_uint32"
      },
      {
        "astId": 561,
        "contract": "contracts/ChainlinkVRFTest.sol:ChainlinkVRFTest",
        "label": "randomNum",
        "offset": 0,
        "slot": "5",
        "type": "t_uint256"
      }
    ],
    "types": {
      "t_address": {
        "encoding": "inplace",
        "label": "address",
        "numberOfBytes": "20"
      },
      "t_bytes32": {
        "encoding": "inplace",
        "label": "bytes32",
        "numberOfBytes": "32"
      },
      "t_contract(IVRFCoordinatorV2Plus)380": {
        "encoding": "inplace",
        "label": "contract IVRFCoordinatorV2Plus",
        "numberOfBytes": "20"
      },
      "t_uint16": {
        "encoding": "inplace",
        "label": "uint16",
        "numberOfBytes": "2"
      },
      "t_uint256": {
        "encoding": "inplace",
        "label": "uint256",
        "numberOfBytes": "32"
      },
      "t_uint32": {
        "encoding": "inplace",
        "label": "uint32",
        "numberOfBytes": "4"
      }
    }
  }
}